:020000040800F2
:1000000000280020D10900086109000867090008DC
:100010006D09000873090008790900080000000054
:100020000000000000000000000000007F09000840
:100030008B0900080000000097090008A3090008C8
:10004000190A0008190A0008190A0008190A000804
:10005000190A0008190A0008190A0008190A0008F4
:10006000190A0008190A0008190A0008190A0008E4
:10007000190A0008190A0008190A0008190A0008D4
:10008000190A0008190A0008190A0008190A0008C4
:10009000190A0008190A0008190A0008190A0008B4
:1000A000190A0008190A0008190A0008190A0008A4
:1000B000B1090008190A000800000000190A000828
:1000C000190A00080000000000000000190A0008DA
:1000D00000000000190A0008190A000800000000CA
:1000E000190A0008190A0008190A0008000000008F
:1000F0000000000000000000000000000000000000
:0C01000000000000000000005FF808F1A3
:10010C0010B5054C237833B9044B13B10448AFF345
:10011C0000800123237010BD0C00002000000000A3
:10012C003C20000808B5034B1BB103490348AFF34F
:10013C00008008BD00000000100000203C200008DA
:10014C0080B582B000AF78607B68092B00F28081AB
:10015C0001A252F823F000BF8D010008D501000860
:10016C001D02000865020008AD020008F502000837
:10017C003D03000885030008CD03000815040008A2
:10018C0000220121C64800F02FFF00220221C448A2
:10019C0000F02AFF00220421C14800F025FF0022B4
:1001AC000821BF4800F020FF00221021BC4800F0BD
:1001BC001BFF00222021BA4800F016FF012240212B
:1001CC00B74800F011FF67E101220121B44800F0AB
:1001DC000BFF00220221B24800F006FF002204218E
:1001EC00AF4800F001FF01220821AD4800F0FCFEF1
:1001FC0001221021AA4800F0F7FE01222021A84874
:10020C0000F0F2FE01224021A54800F0EDFE43E192
:10021C0000220121A24800F0E7FE00220221A048A2
:10022C0000F0E2FE012204219D4800F0DDFE0022D8
:10023C0008219B4800F0D8FE00221021984800F0BD
:10024C00D3FE01222021964800F0CEFE0022402150
:10025C00934800F0C9FE1FE100220121904800F0F4
:10026C00C3FE002202218E4800F0BEFE00220421B3
:10027C008B4800F0B9FE00220821894800F0B4FE3A
:10028C0001221021864800F0AFFE01222021844873
:10029C0000F0AAFE00224021814800F0A5FEFBE000
:1002AC00012201217E4800F09FFE002202217C48A1
:1002BC0000F09AFE00220421794800F095FE0122FC
:1002CC000821774800F090FE01221021744800F0BC
:1002DC008BFE00222021724800F086FE0022402175
:1002EC006F4800F081FED7E0002201216C4800F03D
:1002FC007BFE012202216A4800F076FE00220421D6
:10030C00674800F071FE00220821654800F06CFE81
:10031C0001221021624800F067FE00222021604873
:10032C0000F062FE002240215D4800F05DFEB3E06B
:10033C00002201215A4800F057FE012202215848A0
:10034C0000F052FE00220421554800F04DFE002220
:10035C000821534800F048FE00221021504800F0BC
:10036C0043FE002220214E4800F03EFE0022402198
:10037C004B4800F039FE8FE000220121484800F084
:10038C0033FE00220221464800F02EFE00220421FA
:10039C00434800F029FE01220821414800F024FEC8
:1003AC00012210213E4800F01FFE012220213C4872
:1003BC0000F01AFE00224021394800F015FE6BE0D7
:1003CC0000220121364800F00FFE002202213448A1
:1003DC0000F00AFE00220421314800F005FE002244
:1003EC0008212F4800F000FE002210212C4800F0BC
:1003FC00FBFD002220212A4800F0F6FD00224021BE
:10040C00274800F0F1FD47E000220121244800F0CC
:10041C00EBFD00220221224800F0E6FD002204211F
:10042C001F4800F0E1FD002208211D4800F0DCFD12
:10043C00012210211A4800F0D7FD00222021184873
:10044C0000F0D2FD00224021154800F0CDFD23E044
:10045C0001220121124800F0C7FD0122022110489F
:10046C0000F0C2FD012204210D4800F0BDFD012267
:10047C0008210B4800F0B8FD01221021084800F0BB
:10048C00B3FD01222021064800F0AEFD01224021DF
:10049C00034800F0A9FD00BF00BF0837BD4680BD72
:1004AC00000C014080B582B000AF78606346C7F89D
:1004BC0000C07A68032A7FD801A151F822F000BF4E
:1004CC00DD04000817050008510500088B0500081D
:1004DC007A6853F822301846FFF732FE002240218A
:1004EC00384800F081FD01228021364800F07CFD67
:1004FC0001224FF48071334800F076FD01224FF455
:10050C000071304800F070FD57E07A6853F82230E3
:10051C001846FFF715FE012240212A4800F064FD21
:10052C0000228021274800F05FFD01224FF48071EA
:10053C00244800F059FD01224FF40071214800F0CD
:10054C0053FD3AE07A6853F822301846FFF7F8FD6D
:10055C00012240211B4800F047FD0122802119484F
:10056C0000F042FD00224FF48071164800F03CFD73
:10057C0001224FF40071134800F036FD1DE07A683B
:10058C0053F822301846FFF7DBFD012240210D48BD
:10059C0000F02AFD012280210A4800F025FD0122ED
:1005AC004FF48071074800F01FFD00224FF40071DA
:1005BC00044800F019FD00E000BF00BF0837BD463D
:1005CC0080BD00BF0008014090B589B000AF07F1B5
:1005DC0030037B6100F01CFA00F046F800F0CCF818
:1005EC0000F07EF81C4801F05FF90423BB61002386
:1005FC00FB611A4B3C1D0FCB84E80F0000216420DB
:10060C0000F022F90121322000F01EF9144B1B6876
:10061C00012B0BD10021642000F016F92021114888
:10062C0000F0FAFC10210F4800F0F6FC0C4B5B6854
:10063C00012BEBD10121322000F006F9FB695A1C89
:10064C00FA613A1D94461846FFF72CFFFB69032B01
:10065C00DCDD0023FB61D9E72800002054200008D2
:10066C00B00000200008014080B590B000AF07F149
:10067C00180328220021184601F0AEFC3B1D002275
:10068C001A605A609A60DA601A610223BB61012316
:10069C00BB621023FB6200237B6307F1180318462F
:1006AC0000F0D4FC0346002B01D000F0C7F80F2358
:1006BC007B600023BB600023FB6000233B610023B5
:1006CC007B613B1D0021184600F042FF0346002BC6
:1006DC0001D000F0B3F800BF4037BD4680BD00002C
:1006EC0080B586B000AF07F1080300221A605A608B
:1006FC009A60DA603B4600221A605A601D4B4FF03C
:10070C0080421A601B4B41F63F725A60194B002213
:10071C009A60184B0922DA60164B00221A61154BAD
:10072C0000229A61134801F06FF80346002B01D0A8
:10073C0000F084F84FF48053BB6007F108031946AE
:10074C000C4801F005FA0346002B01D000F076F8B6
:10075C0000233B6000237B603B461946054801F0B3
:10076C00D1FB0346002B01D000F068F800BF18370E
:10077C00BD4680BD2800002080B586B000AF07F1D3
:10078C00080300221A605A609A60DA60214B9B6958
:10079C00204A43F0040393611E4B9B6903F004034E
:1007AC007B607B681B4B9B691A4A43F0080393617F
:1007BC00184B9B6903F008033B603B6800224FF425
:1007CC007C71154800F010FC00227F21134800F0CA
:1007DC000BFC4FF47C73BB600123FB6000233B617B
:1007EC0002237B6107F1080319460B4800F080FADD
:1007FC007F23BB600123FB6000233B6102237B61F1
:10080C0007F108031946054800F072FA00BF1837C3
:10081C00BD4680BD0010024000080140000C0140A4
:10082C0080B582B000AF7860002000F025F8012080
:10083C0000F022F800BF0837BD4680BD80B400AF81
:10084C0072B600BFFEE7000080B483B000AF7860E2
:10085C00396007493B687A6841F82320054A3B68B0
:10086C00002142F8231000BF0C37BD4680BC7047F6
:10087C0070000020B000002080B483B000AF78601E
:10088C000F4A7B6852F82330002B13DD0C4A7B682F
:10089C0052F823305A1E0A497B6841F82320084A33
:1008AC007B6852F82330002B04DC064A7B6801215C
:1008BC0042F8231000BF0C37BD4680BC704700BF08
:1008CC0070000020B000002080B483B000AF0E4B4D
:1008DC009B690D4A43F0010393610B4B9B6903F039
:1008EC0001037B607B68084BDB69074A43F080534C
:1008FC00D361054BDB6903F080533B603B6800BF61
:10090C000C37BD4680BC70470010024080B584B0E7
:10091C0000AF78607B681B68B3F1804F13D10C4B30
:10092C00DB690B4A43F00103D361094BDB6903F02C
:10093C000103FB60FB68002200211C2000F0A1F9E0
:10094C001C2000F0BAF900BF1037BD4680BD00BFB7
:10095C000010024080B400AFFEE780B400AFFEE7A9
:10096C0080B400AFFEE780B400AFFEE780B400AF08
:10097C00FEE780B400AF00BFBD4680BC704780B4BA
:10098C0000AF00BFBD4680BC704780B400AF00BF55
:10099C00BD4680BC704780B500AF00F07FF800BF4B
:1009AC0080BD000080B500AF024800F0C9FF00BF59
:1009BC0080BD00BF2800002080B400AF00BFBD4642
:1009CC0080BC7047FFF7F8FF0B480C490C4A00231A
:1009DC0002E0D458C4500433C4188C42F9D3094AE9
:1009EC00094C002301E013600432A242FBD301F056
:1009FC00FBFAFFF7E9FD7047000000200C00002017
:100A0C00902000080C000020F4000020FEE70000FD
:100A1C0080B500AF084B1B68074A43F01003136006
:100A2C00032000F023F90F2000F008F8FFF74CFF2B
:100A3C000023184680BD00BF0020024080B582B064
:100A4C0000AF7860124B1A68124B1B7819464FF4A2
:100A5C007A73B3FBF1F3B2FBF3F3184600F03BF9F6
:100A6C000346002B01D001230EE07B680F2B0AD824
:100A7C00002279684FF0FF3000F003F9064A7B68DA
:100A8C001360002300E0012318460837BD4680BDE3
:100A9C0000000020080000200400002080B400AFFB
:100AAC00054B1B781A46054B1B681344034A13600D
:100ABC0000BFBD4680BC704708000020F00000203D
:100ACC0080B400AF024B1B681846BD4680BC704713
:100ADC00F000002080B485B000AF78607B6803F034
:100AEC000703FB600C4BDB68BB60BA684FF6FF0377
:100AFC001340BB60FB681A02BB68134343F0BF632F
:100B0C0043F40033BB60044ABB68D36000BF1437A6
:100B1C00BD4680BC704700BF00ED00E080B400AF64
:100B2C00044BDB681B0A03F007031846BD4680BC68
:100B3C00704700BF00ED00E080B483B000AF034607
:100B4C00FB7197F90730002B0BDBFB7903F01F02CD
:100B5C00064997F907305B09012000FA02F241F8C7
:100B6C00232000BF0C37BD4680BC704700E100E07D
:100B7C0080B483B000AF03463960FB7197F907303E
:100B8C00002B0ADB3B68DAB20C4997F907301201EB
:100B9C00D2B20B4483F800230AE03B68DAB208496E
:100BAC00FB7903F00F03043B1201D2B20B441A760B
:100BBC0000BF0C37BD4680BC704700BF00E100E0B1
:100BCC0000ED00E080B489B000AFF860B9607A60E5
:100BDC00FB6803F00703FB61FB69C3F10703042BFC
:100BEC0028BF0423BB61FB690433062B02D9FB69C4
:100BFC00033B00E000237B614FF0FF32BB6902FA3C
:100C0C0003F3DA43BB681A407B699A404FF0FF311B
:100C1C007B6901FA03F3D9437B680B4013431846F5
:100C2C002437BD4680BC704780B582B000AF786079
:100C3C007B68013BB3F1807F01D301230FE00A4AAB
:100C4C007B68013B53600F214FF0FF30FFF790FFA3
:100C5C00054B00229A60044B07221A6000231846A9
:100C6C000837BD4680BD00BF10E000E080B582B003
:100C7C0000AF78607868FFF72DFF00BF0837BD46DE
:100C8C0080BD80B586B000AF0346B9607A60FB7357
:100C9C0000237B61FFF742FF78617A68B968786955
:100CAC00FFF790FF024697F90F3011461846FFF7F1
:100CBC005FFF00BF1837BD4680BD80B582B000AF66
:100CCC000346FB7197F907301846FFF735FF00BF55
:100CDC000837BD4680BD80B582B000AF78607868BB
:100CEC00FFF7A2FF034618460837BD4680BD00003B
:100CFC0080B48BB000AF7860396000237B62002336
:100D0C003B6261E101227B6A02FA03F3FB613B68FF
:100D1C001B68FA691340BB61BA69FB699A4240F0DF
:100D2C0050813B685B68974A93425ED0954A9342E8
:100D3C0075D8954A934258D0934A93426FD8934AA8
:100D4C00934252D0914A934269D8914A93424CD0E3
:100D5C008F4A934263D88F4A934246D08D4A93422E
:100D6C005DD8122B2AD8122B59D801A252F823F095
:100D7C00F70D0008D10D0008E30D0008250E000842
:100D8C002B0E00082B0E00082B0E00082B0E000853
:100D9C002B0E00082B0E00082B0E00082B0E000843
:100DAC002B0E00082B0E00082B0E00082B0E000833
:100DBC002B0E0008D90D0008ED0D0008764A934261
:100DCC0013D02CE03B68DB683B6229E03B68DB68B6
:100DDC0004333B6224E03B68DB6808333B621FE072
:100DEC003B68DB680C333B621AE03B689B68002B6A
:100DFC0002D104233B6213E03B689B68012B05D1B5
:100E0C0008233B627B68FA691A6109E008233B629C
:100E1C007B68FA695A6103E000233B6200E000BF83
:100E2C00BB69FF2B01D87B6801E07B6804337B61D5
:100E3C00BB69FF2B02D87B6A9B0002E07B6A083BF4
:100E4C009B003B617B691A680F213B6901FA03F334
:100E5C00DB431A40396A3B6901FA03F31A437B6995
:100E6C001A603B685B6803F08053002B00F0A9808C
:100E7C004A4B9B69494A43F001039361474B9B6979
:100E8C0003F00103BB60BB68454A7B6A9B080233D5
:100E9C0052F82330FB607B6A03F003039B000F22A4
:100EAC0002FA03F3DB43FA681340FB607B683D4AAC
:100EBC0093420DD07B683C4A934207D07B683B4AF7
:100ECC00934201D1022304E0032302E0012300E05A
:100EDC0000237A6A02F0030292009340FA681343EB
:100EEC00FB602F497B6A9B080233FA6841F8232088
:100EFC003B685B6803F48013002B06D02C4B9A687C
:100F0C002B49BB6913438B6006E0294B9A68BB697C
:100F1C00DB43274913408B603B685B6803F4001389
:100F2C00002B06D0224BDA682149BB691343CB60F6
:100F3C0006E01F4BDA68BB69DB431D491340CB60ED
:100F4C003B685B6803F40033002B06D0184B5A68DF
:100F5C001749BB6913434B6006E0154B5A68BB69D4
:100F6C00DB43134913404B603B685B6803F48033ED
:100F7C00002B1FD00E4B1A680D49BB6913430B6035
:100F8C001FE000BF000032100000311000002210E2
:100F9C00000021100000121000001110001002407F
:100FAC000000014000080140000C0140001001400D
:100FBC00000401400B4B1A68BB69DB430949134021
:100FCC000B607B6A01337B623B681A687B6A22FA8E
:100FDC0003F3002B7FF496AE00BF00BF2C37BD4649
:100FEC0080BC70470004014080B483B000AF7860CF
:100FFC000B467B8013467B707B78002B03D07A8862
:10100C007B681A6103E07B881A047B681A6100BF55
:10101C000C37BD4680BC704780B485B000AF78609B
:10102C000B467B807B68DB68FB607A88FB6813402F
:10103C001A04FB68D9437B880B401A437B681A61FE
:10104C0000BF1437BD4680BC7047000080B586B029
:10105C0000AF78607B68002B01D1012372E27B68C2
:10106C001B6803F00103002B00F08780924B5B6838
:10107C0003F00C03042B0CD08F4B5B6803F00C03B8
:10108C00082B12D18C4B5B6803F48033B3F5803F93
:10109C000BD1894B1B6803F40033002B6CD07B689D
:1010AC005B68002B68D101234CE27B685B68B3F56D
:1010BC00803F06D1804B1B687F4A43F4803313601A
:1010CC002EE07B685B68002B0CD17B4B1B687A4A4B
:1010DC0023F480331360784B1B68774A23F4802306
:1010EC0013601DE07B685B68B3F5A02F0CD1724BCD
:1010FC001B68714A43F4802313606F4B1B686E4A64
:10110C0043F4803313600BE06B4B1B686A4A23F487
:10111C0080331360684B1B68674A23F48023136089
:10112C007B685B68002B13D0FFF7CAFC386108E0C2
:10113C00FFF7C6FC02463B69D31A642B01D9032383
:10114C0000E25D4B1B6803F40033002BF0D014E07D
:10115C00FFF7B6FC386108E0FFF7B2FC02463B69CA
:10116C00D31A642B01D90323ECE1534B1B6803F412
:10117C000033002BF0D100E000BF7B681B6803F04C
:10118C000203002B63D04C4B5B6803F00C03002B69
:10119C000BD0494B5B6803F00C03082B1CD1464B5E
:1011AC005B6803F48033002B16D1434B1B6803F0B0
:1011BC000203002B05D07B681B69012B01D0012396
:1011CC00C0E13D4B1B6823F0F8027B685B69DB00D8
:1011DC00394913430B603AE07B681B69002B20D024
:1011EC00364B01221A60FFF76BFC386108E0FFF701
:1011FC0067FC02463B69D31A022B01D90323A1E1F8
:10120C002D4B1B6803F00203002BF0D02A4B1B68FC
:10121C0023F0F8027B685B69DB00274913430B6002
:10122C0015E0264B00221A60FFF74AFC386108E0F3
:10123C00FFF746FC02463B69D31A022B01D9032364
:10124C0080E11D4B1B6803F00203002BF0D17B687F
:10125C001B6803F00803002B3AD07B689B69002BBA
:10126C0019D0174B01221A60FFF72AFC386108E0ED
:10127C00FFF726FC02463B69D31A022B01D9032344
:10128C0060E10D4B5B6A03F00203002BF0D00120F0
:10129C0000F09CFA1CE00A4B00221A60FFF710FCCD
:1012AC0038610FE0FFF70CFC02463B69D31A022BA6
:1012BC0008D9032346E100BF00100240000042425F
:1012CC0080044242924B5B6A03F00203002BE9D18B
:1012DC007B681B6803F00403002B00F0A68000233E
:1012EC00FB758B4BDB6903F08053002B0DD1884BC6
:1012FC00DB69874A43F08053D361854BDB6903F08C
:10130C008053BB60BB680123FB75824B1B6803F4E5
:10131C008073002B18D17F4B1B687E4A43F480737B
:10132C001360FFF7CDFB386108E0FFF7C9FB0246FD
:10133C003B69D31A642B01D9032303E1754B1B685A
:10134C0003F48073002BF0D07B68DB68012B06D193
:10135C006F4B1B6A6E4A43F0010313622DE07B68EE
:10136C00DB68002B0CD16A4B1B6A694A23F0010322
:10137C001362674B1B6A664A23F0040313621CE07A
:10138C007B68DB68052B0CD1614B1B6A604A43F010
:10139C00040313625E4B1B6A5D4A43F00103136244
:1013AC000BE05B4B1B6A5A4A23F001031362584B48
:1013BC001B6A574A23F0040313627B68DB68002B1B
:1013CC0015D0FFF77DFB38610AE0FFF779FB024689
:1013DC003B69D31A41F28832934201D90323B1E01D
:1013EC004B4B1B6A03F00203002BEED014E0FFF70B
:1013FC0067FB38610AE0FFF763FB02463B69D31ACF
:10140C0041F28832934201D903239BE0404B1B6A83
:10141C0003F00203002BEED1FB7D012B05D13C4BDD
:10142C00DB693B4A23F08053D3617B68DB69002B7B
:10143C0000F08780364B5B6803F00C03082B61D0FF
:10144C007B68DB69022B46D1334B00221A60FFF715
:10145C0037FB386108E0FFF733FB02463B69D31AD0
:10146C00022B01D903236DE0294B1B6803F0007399
:10147C00002BF0D17B681B6AB3F5803F08D1244B5D
:10148C005B6823F400327B689B68214913434B60F3
:10149C001F4B5B6823F474127B68196A7B685B6A68
:1014AC000B431B4913434B601B4B01221A60FFF784
:1014BC0007FB386108E0FFF703FB02463B69D31AD0
:1014CC00022B01D903233DE0114B1B6803F0007381
:1014DC00002BF0D035E0104B00221A60FFF7F0FA29
:1014EC00386108E0FFF7ECFA02463B69D31A022B8D
:1014FC0001D9032326E0064B1B6803F00073002B75
:10150C00F0D11EE07B68DB69012B07D1012319E0C8
:10151C000010024000700040600042420B4B5B68C0
:10152C00FB60FB6803F480327B681B6A9A4206D12D
:10153C00FB6803F470127B685B6A9A4201D001234A
:10154C0000E0002318461837BD4680BD001002404D
:10155C0080B584B000AF786039607B68002B01D116
:10156C000123D0E06A4B1B6803F007033A689A42E8
:10157C0010D9674B1B6823F0070265493B6813437E
:10158C000B60634B1B6803F007033A689A4201D067
:10159C000123B8E07B681B6803F00203002B20D00A
:1015AC007B681B6803F00403002B05D0594B5B6868
:1015BC00584A43F4E06353607B681B6803F00803EC
:1015CC00002B05D0534B5B68524A43F46053536075
:1015DC00504B5B6823F0F0027B689B684D491343CA
:1015EC004B607B681B6803F00103002B40D07B68C9
:1015FC005B68012B07D1474B1B6803F40033002BAE
:10160C0015D101237FE07B685B68022B07D1414B2E
:10161C001B6803F00073002B09D1012373E03D4BD1
:10162C001B6803F00203002B01D101236BE0394B43
:10163C005B6823F003027B685B68364913434B609D
:10164C00FFF73EFAF8600AE0FFF73AFA0246FB6849
:10165C00D31A41F28832934201D9032353E02D4B24
:10166C005B6803F00C027B685B689B009A42EBD1D1
:10167C00274B1B6803F007033A689A4210D2244B9D
:10168C001B6823F0070222493B6813430B60204B75
:10169C001B6803F007033A689A4201D0012332E039
:1016AC007B681B6803F00403002B08D0194B5B68A4
:1016BC0023F4E0627B68DB68164913434B607B685C
:1016CC001B6803F00803002B09D0124B5B6823F452
:1016DC0060527B681B69DB000E4913434B6000F0C2
:1016EC0021F802460B4B5B681B0903F00F030A49F8
:1016FC00CB5C22FA03F3094A1360094B1B681846AA
:10170C00FFF79CF9002318461037BD4680BD00BF7B
:10171C00002002400010024064200008000000205D
:10172C000400002080B487B000AF0023FB600023CE
:10173C00BB6000237B6100237B6000233B611E4B5D
:10174C005B68FB60FB6803F00C03042B02D0082BD6
:10175C0003D027E0194B3B6127E0FB689B0C03F09F
:10176C000F03174AD35C7B60FB6803F48033002BB8
:10177C0010D0114B5B685B0C03F00103114AD35C76
:10178C00BB607B680D4A03FB02F2BB68B2FBF3F350
:10179C007B6104E07B680C4A02FB03F37B617B6991
:1017AC003B6102E0054B3B6100BF3B6918461C37AF
:1017BC00BD4680BC704700BF0010024000127A008A
:1017CC00742000088420000800093D0080B485B016
:1017DC0000AF78600A4B1B680A4AA2FB03235B0A22
:1017EC007A6802FB03F3FB6000BFFB685A1EFA60C9
:1017FC00002BF9D100BF00BF1437BD4680BC704729
:10180C0000000020D34D621080B582B000AF78602C
:10181C007B68002B01D1012341E07B6893F83D30BC
:10182C00DBB2002B06D17B68002283F83C20786861
:10183C00FFF76CF87B68022283F83D207B681A68FE
:10184C007B6804331946104600F06EFA7B6801225F
:10185C0083F846207B68012283F83E207B680122B6
:10186C0083F83F207B68012283F840207B680122AB
:10187C0083F841207B68012283F842207B68012297
:10188C0083F843207B68012283F844207B68012283
:10189C0083F845207B68012283F83D2000231846FD
:1018AC000837BD4680BD000080B485B000AF7860BD
:1018BC007B6893F83D30DBB2012B01D0012335E07E
:1018CC007B68022283F83D207B681B68DA687B68A2
:1018DC001B6842F00102DA607B681B68164A93426F
:1018EC0009D07B681B68B3F1804F04D07B681B6800
:1018FC00124A934211D17B681B689B6803F0070363
:10190C00FB60FB68062B10D07B681B681A687B6831
:10191C001B6842F001021A6007E07B681B681A68BA
:10192C007B681B6842F001021A60002318461437CA
:10193C00BD4680BC704700BF002C01400004004035
:10194C0080B582B000AF78607B681B681B6903F0C0
:10195C000203022B22D17B681B68DB6803F00203B5
:10196C00022B1BD17B681B686FF002021A617B682B
:10197C0001221A777B681B689B6903F00303002B19
:10198C0003D0786800F0B4F905E0786800F0A7F9A6
:10199C00786800F0B6F97B6800221A777B681B68C0
:1019AC001B6903F00403042B22D17B681B68DB68E2
:1019BC0003F00403042B1BD17B681B686FF004023B
:1019CC001A617B6802221A777B681B689B6903F497
:1019DC004073002B03D0786800F08AF905E0786832
:1019EC0000F07DF9786800F08CF97B6800221A779A
:1019FC007B681B681B6903F00803082B22D17B68EA
:101A0C001B68DB6803F00803082B1BD17B681B6881
:101A1C006FF008021A617B6804221A777B681B68D6
:101A2C00DB6903F00303002B03D0786800F060F946
:101A3C0005E0786800F053F9786800F062F97B688B
:101A4C0000221A777B681B681B6903F01003102BAC
:101A5C0022D17B681B68DB6803F01003102B1BD1B1
:101A6C007B681B686FF010021A617B6808221A777A
:101A7C007B681B68DB6903F44073002B03D0786828
:101A8C0000F036F905E0786800F029F9786800F084
:101A9C0038F97B6800221A777B681B681B6903F096
:101AAC000103012B0ED17B681B68DB6803F001037B
:101ABC00012B07D17B681B686FF001021A617868F3
:101ACC00FEF7AEFE7B681B681B6903F08003802B5E
:101ADC000ED17B681B68DB6803F08003802B07D179
:101AEC007B681B686FF080021A61786800F06BFAF3
:101AFC007B681B681B6903F04003402B0ED17B688D
:101B0C001B68DB6803F04003402B07D17B681B6824
:101B1C006FF040021A61786800F0FCF87B681B6873
:101B2C001B6903F02003202B0ED17B681B68DB683C
:101B3C0003F02003202B07D17B681B686FF0200279
:101B4C001A61786800F036FA00BF0837BD4680BDD0
:101B5C0080B584B000AF786039600023FB737B687C
:101B6C0093F83C30012B01D10223B4E07B680122B5
:101B7C0083F83C207B68022283F83D207B681B683D
:101B8C009B68BB60BB6823F07703BB60BB6823F426
:101B9C007F43BB607B681B68BA689A603B681B68B4
:101BAC00B3F5005F3ED0B3F5005F00F28780B3F56C
:101BBC00805F00F08680B3F5805F7FD8702B1AD0E1
:101BCC00702B7BD8602B50D0602B77D8502B3CD00F
:101BDC00502B73D8402B58D0402B6FD8302B64D05F
:101BEC00302B6BD8202B60D0202B67D8002B5CD0EF
:101BFC00102B5AD062E07B6818683B6899683B6888
:101C0C005A683B68DB6800F05EF97B681B689B6870
:101C1C00BB60BB6843F07703BB607B681B68BA682A
:101C2C009A604FE07B6818683B6899683B685A6813
:101C3C003B68DB6800F047F97B681B689A687B6837
:101C4C001B6842F480429A603CE07B6818683B68F1
:101C5C0059683B68DB681A4600F0BEF87B681B6865
:101C6C005021184600F015F92CE07B6818683B6889
:101C7C0059683B68DB681A4600F0DCF87B681B6827
:101C8C006021184600F005F91CE07B6818683B6879
:101C9C0059683B68DB681A4600F09EF87B681B6845
:101CAC004021184600F0F5F80CE07B681A683B6898
:101CBC001B681946104600F0ECF803E00123FB7397
:101CCC0000E000BF7B68012283F83D207B68002286
:101CDC0083F83C20FB7B18461037BD4680BD80B492
:101CEC0083B000AF786000BF0C37BD4680BC704736
:101CFC0080B483B000AF786000BF0C37BD4680BCA9
:101D0C00704780B483B000AF786000BF0C37BD461D
:101D1C0080BC704780B483B000AF786000BF0C37D4
:101D2C00BD4680BC7047000080B485B000AF7860C1
:101D3C0039607B681B68FB607B68254A934207D03F
:101D4C007B68B3F1804F03D07B68224A934208D161
:101D5C00FB6823F07003FB603B685B68FA68134315
:101D6C00FB607B681A4A934207D07B68B3F1804FC3
:101D7C0003D07B68174A934208D1FB6823F4407365
:101D8C00FB603B68DB68FA681343FB60FB6823F07D
:101D9C0080023B685B691343FB607B68FA681A60DE
:101DAC003B689A687B68DA623B681A687B689A625F
:101DBC007B68074A934203D13B681A697B681A63B4
:101DCC007B6801225A6100BF1437BD4680BC704746
:101DDC00002C01400004004080B487B000AFF860D4
:101DEC00B9607A60FB681B6A7B61FB681B6A23F035
:101DFC000102FB681A62FB689B693B613B6923F03B
:101E0C00F0033B617B681B013A6913433B617B69BF
:101E1C0023F00A037B617A69BB6813437B61FB681F
:101E2C003A699A61FB687A691A6200BF1C37BD4631
:101E3C0080BC704780B487B000AFF860B9607A603E
:101E4C00FB681B6A7B61FB681B6A23F01002FB6852
:101E5C001A62FB689B693B613B6923F470433B61ED
:101E6C007B681B033A6913433B617B6923F0A00336
:101E7C007B61BB681B017A6913437B61FB683A6920
:101E8C009A61FB687A691A6200BF1C37BD4680BC38
:101E9C00704780B485B000AF786039607B689B6810
:101EAC00FB60FB6823F07003FB603A68FB6813432C
:101EBC0043F00703FB607B68FA689A6000BF143735
:101ECC00BD4680BC704780B487B000AFF860B96085
:101EDC007A603B60FB689B687B617B6923F47F4382
:101EEC007B613B681A027B681A43BB6813437A69AF
:101EFC0013437B61FB687A699A6000BF1C37BD464F
:101F0C0080BC704780B485B000AF786039607B6866
:101F1C0093F83C30012B01D1022341E07B68012274
:101F2C0083F83C207B68022283F83D207B681B6889
:101F3C005B68FB607B681B689B68BB60FB6823F07D
:101F4C007003FB603B681B68FA681343FB607B689B
:101F5C001B68FA685A607B681B68144A934209D064
:101F6C007B681B68B3F1804F04D07B681B68104AF8
:101F7C0093420CD1BB6823F08003BB603B685B6869
:101F8C00BA681343BB607B681B68BA689A607B684D
:101F9C00012283F83D207B68002283F83C2000233B
:101FAC0018461437BD4680BC704700BF002C01405A
:101FBC000004004080B483B000AF786000BF0C37E1
:101FCC00BD4680BC704780B483B000AF786000BF62
:101FDC000C37BD4680BC704703460244934200D187
:101FEC00704703F8011BF9E770B500260C4D0D4C3A
:101FFC00641BA410A64209D100F01AF800260A4D61
:10200C000A4C641BA410A64205D170BD55F8043BC4
:10201C0098470136EEE755F8043B98470136F2E74E
:10202C008820000888200008882000088C200008E0
:10203C00F8B500BFF8BC08BC9E467047F8B500BFA9
:08204C00F8BC08BC9E46704779
:102054000100000002000000030000000400000072
:102064000000000000000000010203040607080944
:1020740002030405060708090A0B0C0D0E0F1010C5
:042084000102000055
:04208800310100081A
:04208C000D0100083A
:0C2090000024F40010000000010000001B
:04000005080009D115
:00000001FF
